:1000000001308A00EB2900000A108A100A118207C9
:1000100028340C34013406340A108A100A1182077D
:100020000C3449346D347034723469346D34653451
:10003000563461346C346F34723441342F34443468
:100040000A3400340A108A100A11820756346134C7
:100050006C346F3472343A34003436308400831395
:100060000008031941280130F800F701F70B362882
:10007000F80B35284A30F700F70B3C283F28800B57
:10008000332808003D18462806124728061683160E
:1000900006128312BD184E2886114F288615831626
:1000A000861183123D195628061157280615831606
:1000B00006118312BD195E2886105F2886148316E8
:1000C0008610000083128616831686126728831214
:1000D00086128316861283120800BE018316061646
:1000E00000308312061A0130BE04831686150030D4
:1000F000831286190130F7000310F70D7708BE044C
:10010000831606150030831206190130F700F70D2B
:10011000F70DFC30F7057708BE048316861400300F
:10012000831286180130F700F70DF70DF70DF83040
:10013000F7057708BE043E08F8000800831686120B
:1001400006138613831206138316061306168615E6
:1001500006158614831286178316861300008312F1
:10016000861683168612000083126D207808BD0063
:100170008612831686120000831286168316861254
:10018000000083126D207808BC0086128316861248
:10019000061286110611861083123D0EF700F0300C
:1001A000F70577083C04F8007808BC00BC1FDA2883
:1001B0008316A628BA08031DDF280613E0280617B1
:1001C000831606130000831286138316861300001D
:1001D000831286128316861283123B0EBC000F30E8
:1001E000BC053C08BD0042203B080F39BC00BD00E7
:1001F0004220080083160612861106118610861208
:1002000006138613831206138316061383128613AE
:100210008316861383128612831686120F3083127A
:10022000B6002D200130AE002E08033C031C20290F
:100230000330BD0042200530B6002D20AE0A14293F
:100240000230BD0042200530B6002D20AE012E0840
:10025000033C031C34292E080420AF00BA012F08E8
:10026000BB009E20AE0A2729F729370B38293B29E6
:100270004030B8003C29B80101303602B8073808D0
:100280008038B900BA013908BB009E200800350843
:10029000073A031955290B3A03195A29063A031943
:1002A0006229023A031968296D290130B600B700A6
:1002B00035217229BA010130BB009E200230B60000
:1002C0002D2072290130B6000230B7003521722985
:1002D000BA011030BB009E2072290130BA003508E7
:1002E000BB009E20080006148316061032308312CD
:1002F000B6002D200610831606108312072A360832
:10030000F8013502031887293508F7009329F7010A
:100310000830B700B50DF70D360877020318F7005F
:10032000F80DB70B8A2908002030301E3030B1009C
:100330002F08F700AF1FA429F709F70A7708AF00C5
:100340002D30B100B01730142F08B5006430B6005E
:100350007F217708AF0030307807B2002F08B50052
:100360000A30B6007F2130307707B400303078078C
:10037000B3003108F700303032020319C329B0143A
:10038000B01B3015D7293108B2002030B100303011
:1003900033020319CF293014B01BB014D729031D21
:1003A0003014031DD7293208B3002030B2003019B1
:1003B000DE29B018E1293018E429E7293108B50011
:1003C00047213208B50047213308B50047213408DA
:1003D000B5004721382A03081F39830083168E157C
:1003E000073083129F008313A001A101FA2886130E
:1003F000831686138312AE012E080C20AE0AF70076
:10040000B500472111302E02031DFC297329AD01CF
:100410002D08073C031C142A26302D078400831363
:100420002D088000AD0A082A0130B6000230B7005E
:100430003521AE012E082220AE0AF700B500472173
:1004400006302E02031D1A2A0730B6000230B7000C
:100450003521AD012D08073C031C412A26302D070C
:10046000840083130008AE00AF001830B000942958
:100470000230AE00FA30B6002D20AE0B3A2AAD0A9B
:060480002A2A062A63008F
:02400E00103F61
:00000001FF
;PIC16F628A
;CRC=9372  CREATED="02-abr-21 19:20"
